{
  "abi": [
    {
      "inputs": [
        {
          "internalType": "contract IERC20",
          "name": "token0",
          "type": "address"
        },
        {
          "internalType": "uint256",
          "name": "amount",
          "type": "uint256"
        }
      ],
      "name": "exchange",
      "outputs": [],
      "stateMutability": "nonpayable",
      "type": "function"
    },
    {
      "inputs": [
        {
          "internalType": "contract IERC20",
          "name": "token0",
          "type": "address"
        },
        {
          "internalType": "uint256",
          "name": "amount",
          "type": "uint256"
        },
        {
          "internalType": "address",
          "name": "user",
          "type": "address"
        }
      ],
      "name": "exchangeV2",
      "outputs": [],
      "stateMutability": "nonpayable",
      "type": "function"
    },
    {
      "inputs": [
        {
          "internalType": "contract IERC20",
          "name": "_usdt",
          "type": "address"
        },
        {
          "internalType": "contract IERC20",
          "name": "_usdc",
          "type": "address"
        }
      ],
      "name": "initialize",
      "outputs": [],
      "stateMutability": "nonpayable",
      "type": "function"
    },
    {
      "inputs": [
        {
          "internalType": "contract IERC20",
          "name": "_usdt",
          "type": "address"
        },
        {
          "internalType": "contract IERC20",
          "name": "_usdc",
          "type": "address"
        }
      ],
      "name": "initializeV2",
      "outputs": [],
      "stateMutability": "nonpayable",
      "type": "function"
    },
    {
      "inputs": [],
      "name": "initialized",
      "outputs": [
        {
          "internalType": "bool",
          "name": "",
          "type": "bool"
        }
      ],
      "stateMutability": "view",
      "type": "function"
    },
    {
      "inputs": [],
      "name": "usdc",
      "outputs": [
        {
          "internalType": "contract IERC20",
          "name": "",
          "type": "address"
        }
      ],
      "stateMutability": "view",
      "type": "function"
    },
    {
      "inputs": [],
      "name": "usdt",
      "outputs": [
        {
          "internalType": "contract IERC20",
          "name": "",
          "type": "address"
        }
      ],
      "stateMutability": "view",
      "type": "function"
    }
  ],
  "bytecode": {
    "object": "0x608060405234801561001057600080fd5b5061069a806100206000396000f3fe608060405234801561001057600080fd5b506004361061007d5760003560e01c80632f48ab7d1161005b5780632f48ab7d1461010d5780633e413bee1461013d578063485cc9551461015057806361366fd61461016357600080fd5b8063045d0389146100825780630840ba7214610097578063158ef93e146100eb575b600080fd5b6100956100903660046105de565b610176565b005b6100956100a53660046105a5565b60008054600180546001600160a01b0319166001600160a01b039485161781556001600160a81b0319909116610100949093169390930260ff1916919091179091179055565b6000546100f89060ff1681565b60405190151581526020015b60405180910390f35b6000546101259061010090046001600160a01b031681565b6040516001600160a01b039091168152602001610104565b600154610125906001600160a01b031681565b61009561015e3660046105a5565b610333565b61009561017136600461060a565b6103b8565b6000546001600160a01b038381166101009092041614806101a457506001546001600160a01b038381169116145b6101e55760405162461bcd60e51b815260206004820152600d60248201526c34b73b30b634b2103a37b5b2b760991b60448201526064015b60405180910390fd5b600080546001600160a01b0384811661010090920416146102165760005461010090046001600160a01b0316610223565b6001546001600160a01b03165b6040516323b872dd60e01b8152336004820152306024820152604481018490529091506001600160a01b038416906323b872dd90606401602060405180830381600087803b15801561027457600080fd5b505af1158015610288573d6000803e3d6000fd5b505050506040513d601f19601f820116820180604052508101906102ac919061057c565b5060405163a9059cbb60e01b8152336004820152602481018390526001600160a01b0382169063a9059cbb90604401602060405180830381600087803b1580156102f557600080fd5b505af1158015610309573d6000803e3d6000fd5b505050506040513d601f19601f8201168201806040525081019061032d919061057c565b50505050565b60005460ff161561037c5760405162461bcd60e51b8152602060048201526013602482015272185b1c9958591e481a5b9a5d1a585b1a5e9959606a1b60448201526064016101dc565b6000805460016001600160a81b03199091166101006001600160a01b039586160217811790915580546001600160a01b03191691909216179055565b6000546001600160a01b038481166101009092041614806103e657506001546001600160a01b038481169116145b6104225760405162461bcd60e51b815260206004820152600d60248201526c34b73b30b634b2103a37b5b2b760991b60448201526064016101dc565b600080546001600160a01b0385811661010090920416146104535760005461010090046001600160a01b0316610460565b6001546001600160a01b03165b6040516323b872dd60e01b81526001600160a01b03848116600483015233602483015260448201869052919250908516906323b872dd90606401602060405180830381600087803b1580156104b457600080fd5b505af11580156104c8573d6000803e3d6000fd5b505050506040513d601f19601f820116820180604052508101906104ec919061057c565b506040516323b872dd60e01b81526001600160a01b038381166004830152336024830152604482018590528216906323b872dd90606401602060405180830381600087803b15801561053d57600080fd5b505af1158015610551573d6000803e3d6000fd5b505050506040513d601f19601f82011682018060405250810190610575919061057c565b5050505050565b60006020828403121561058e57600080fd5b8151801515811461059e57600080fd5b9392505050565b600080604083850312156105b857600080fd5b82356105c38161064c565b915060208301356105d38161064c565b809150509250929050565b600080604083850312156105f157600080fd5b82356105fc8161064c565b946020939093013593505050565b60008060006060848603121561061f57600080fd5b833561062a8161064c565b92506020840135915060408401356106418161064c565b809150509250925092565b6001600160a01b038116811461066157600080fd5b5056fea2646970667358221220cd3bea56cca21f9795ef108e3ad7cd96675c75fdd2e661fd1c319922a0bbc61b64736f6c63430008060033",
    "linkReferences": {}
  },
  "methodIdentifiers": {
    "exchange(address,uint256)": "045d0389",
    "exchangeV2(address,uint256,address)": "61366fd6",
    "initialize(address,address)": "485cc955",
    "initializeV2(address,address)": "0840ba72",
    "initialized()": "158ef93e",
    "usdc()": "3e413bee",
    "usdt()": "2f48ab7d"
  },
  "id": 23
}