{
  "abi": [
    {
      "inputs": [
        {
          "internalType": "string",
          "name": "_name",
          "type": "string"
        },
        {
          "internalType": "string",
          "name": "_symbol",
          "type": "string"
        },
        {
          "internalType": "uint8",
          "name": "_decimals",
          "type": "uint8"
        },
        {
          "internalType": "address",
          "name": "_initWhiteList",
          "type": "address"
        }
      ],
      "stateMutability": "nonpayable",
      "type": "constructor"
    },
    {
      "anonymous": false,
      "inputs": [
        {
          "indexed": true,
          "internalType": "address",
          "name": "owner",
          "type": "address"
        },
        {
          "indexed": true,
          "internalType": "address",
          "name": "spender",
          "type": "address"
        },
        {
          "indexed": false,
          "internalType": "uint256",
          "name": "amount",
          "type": "uint256"
        }
      ],
      "name": "Approval",
      "type": "event"
    },
    {
      "anonymous": false,
      "inputs": [
        {
          "indexed": true,
          "internalType": "address",
          "name": "from",
          "type": "address"
        },
        {
          "indexed": true,
          "internalType": "address",
          "name": "to",
          "type": "address"
        },
        {
          "indexed": false,
          "internalType": "uint256",
          "name": "amount",
          "type": "uint256"
        }
      ],
      "name": "Transfer",
      "type": "event"
    },
    {
      "inputs": [],
      "name": "DOMAIN_SEPARATOR",
      "outputs": [
        {
          "internalType": "bytes32",
          "name": "",
          "type": "bytes32"
        }
      ],
      "stateMutability": "view",
      "type": "function"
    },
    {
      "inputs": [
        {
          "internalType": "address",
          "name": "",
          "type": "address"
        },
        {
          "internalType": "bytes32",
          "name": "",
          "type": "bytes32"
        }
      ],
      "name": "_authorizationStates",
      "outputs": [
        {
          "internalType": "bool",
          "name": "",
          "type": "bool"
        }
      ],
      "stateMutability": "view",
      "type": "function"
    },
    {
      "inputs": [],
      "name": "_initializedVersion",
      "outputs": [
        {
          "internalType": "uint8",
          "name": "",
          "type": "uint8"
        }
      ],
      "stateMutability": "view",
      "type": "function"
    },
    {
      "inputs": [
        {
          "internalType": "address",
          "name": "",
          "type": "address"
        }
      ],
      "name": "_permitNonces",
      "outputs": [
        {
          "internalType": "uint256",
          "name": "",
          "type": "uint256"
        }
      ],
      "stateMutability": "view",
      "type": "function"
    },
    {
      "inputs": [
        {
          "internalType": "address",
          "name": "",
          "type": "address"
        },
        {
          "internalType": "address",
          "name": "",
          "type": "address"
        }
      ],
      "name": "allowance",
      "outputs": [
        {
          "internalType": "uint256",
          "name": "",
          "type": "uint256"
        }
      ],
      "stateMutability": "view",
      "type": "function"
    },
    {
      "inputs": [
        {
          "internalType": "address",
          "name": "",
          "type": "address"
        },
        {
          "internalType": "address",
          "name": "",
          "type": "address"
        }
      ],
      "name": "allowed",
      "outputs": [
        {
          "internalType": "uint256",
          "name": "",
          "type": "uint256"
        }
      ],
      "stateMutability": "view",
      "type": "function"
    },
    {
      "inputs": [
        {
          "internalType": "address",
          "name": "addr",
          "type": "address"
        }
      ],
      "name": "appendWhiteList",
      "outputs": [],
      "stateMutability": "nonpayable",
      "type": "function"
    },
    {
      "inputs": [
        {
          "internalType": "address",
          "name": "spender",
          "type": "address"
        },
        {
          "internalType": "uint256",
          "name": "amount",
          "type": "uint256"
        }
      ],
      "name": "approve",
      "outputs": [
        {
          "internalType": "bool",
          "name": "",
          "type": "bool"
        }
      ],
      "stateMutability": "nonpayable",
      "type": "function"
    },
    {
      "inputs": [
        {
          "internalType": "address",
          "name": "",
          "type": "address"
        }
      ],
      "name": "balanceOf",
      "outputs": [
        {
          "internalType": "uint256",
          "name": "",
          "type": "uint256"
        }
      ],
      "stateMutability": "view",
      "type": "function"
    },
    {
      "inputs": [
        {
          "internalType": "address",
          "name": "",
          "type": "address"
        }
      ],
      "name": "balances",
      "outputs": [
        {
          "internalType": "uint256",
          "name": "",
          "type": "uint256"
        }
      ],
      "stateMutability": "view",
      "type": "function"
    },
    {
      "inputs": [],
      "name": "decimals",
      "outputs": [
        {
          "internalType": "uint8",
          "name": "",
          "type": "uint8"
        }
      ],
      "stateMutability": "view",
      "type": "function"
    },
    {
      "inputs": [],
      "name": "decimals_",
      "outputs": [
        {
          "internalType": "uint8",
          "name": "",
          "type": "uint8"
        }
      ],
      "stateMutability": "view",
      "type": "function"
    },
    {
      "inputs": [],
      "name": "getOwner",
      "outputs": [
        {
          "internalType": "address",
          "name": "owner",
          "type": "address"
        }
      ],
      "stateMutability": "view",
      "type": "function"
    },
    {
      "inputs": [
        {
          "internalType": "address",
          "name": "recipient",
          "type": "address"
        },
        {
          "internalType": "uint256",
          "name": "amount",
          "type": "uint256"
        }
      ],
      "name": "mintToken",
      "outputs": [],
      "stateMutability": "nonpayable",
      "type": "function"
    },
    {
      "inputs": [
        {
          "internalType": "address",
          "name": "",
          "type": "address"
        }
      ],
      "name": "minterAllowed",
      "outputs": [
        {
          "internalType": "uint256",
          "name": "",
          "type": "uint256"
        }
      ],
      "stateMutability": "view",
      "type": "function"
    },
    {
      "inputs": [],
      "name": "name",
      "outputs": [
        {
          "internalType": "string",
          "name": "",
          "type": "string"
        }
      ],
      "stateMutability": "view",
      "type": "function"
    },
    {
      "inputs": [],
      "name": "name_",
      "outputs": [
        {
          "internalType": "string",
          "name": "",
          "type": "string"
        }
      ],
      "stateMutability": "view",
      "type": "function"
    },
    {
      "inputs": [
        {
          "internalType": "address",
          "name": "",
          "type": "address"
        }
      ],
      "name": "nonces",
      "outputs": [
        {
          "internalType": "uint256",
          "name": "",
          "type": "uint256"
        }
      ],
      "stateMutability": "view",
      "type": "function"
    },
    {
      "inputs": [
        {
          "internalType": "address",
          "name": "owner",
          "type": "address"
        },
        {
          "internalType": "address",
          "name": "spender",
          "type": "address"
        },
        {
          "internalType": "uint256",
          "name": "value",
          "type": "uint256"
        },
        {
          "internalType": "uint256",
          "name": "deadline",
          "type": "uint256"
        },
        {
          "internalType": "uint8",
          "name": "v",
          "type": "uint8"
        },
        {
          "internalType": "bytes32",
          "name": "r",
          "type": "bytes32"
        },
        {
          "internalType": "bytes32",
          "name": "s",
          "type": "bytes32"
        }
      ],
      "name": "permit",
      "outputs": [],
      "stateMutability": "nonpayable",
      "type": "function"
    },
    {
      "inputs": [],
      "name": "symbol",
      "outputs": [
        {
          "internalType": "string",
          "name": "",
          "type": "string"
        }
      ],
      "stateMutability": "view",
      "type": "function"
    },
    {
      "inputs": [],
      "name": "symbol_",
      "outputs": [
        {
          "internalType": "string",
          "name": "",
          "type": "string"
        }
      ],
      "stateMutability": "view",
      "type": "function"
    },
    {
      "inputs": [],
      "name": "totalSupply",
      "outputs": [
        {
          "internalType": "uint256",
          "name": "",
          "type": "uint256"
        }
      ],
      "stateMutability": "view",
      "type": "function"
    },
    {
      "inputs": [],
      "name": "totalSupply_",
      "outputs": [
        {
          "internalType": "uint256",
          "name": "",
          "type": "uint256"
        }
      ],
      "stateMutability": "view",
      "type": "function"
    },
    {
      "inputs": [
        {
          "internalType": "address",
          "name": "recipient",
          "type": "address"
        },
        {
          "internalType": "uint256",
          "name": "amount",
          "type": "uint256"
        }
      ],
      "name": "transfer",
      "outputs": [
        {
          "internalType": "bool",
          "name": "",
          "type": "bool"
        }
      ],
      "stateMutability": "nonpayable",
      "type": "function"
    },
    {
      "inputs": [
        {
          "internalType": "address",
          "name": "from",
          "type": "address"
        },
        {
          "internalType": "address",
          "name": "to",
          "type": "address"
        },
        {
          "internalType": "uint256",
          "name": "amount",
          "type": "uint256"
        }
      ],
      "name": "transferFrom",
      "outputs": [
        {
          "internalType": "bool",
          "name": "",
          "type": "bool"
        }
      ],
      "stateMutability": "nonpayable",
      "type": "function"
    },
    {
      "inputs": [
        {
          "internalType": "address",
          "name": "newOwner",
          "type": "address"
        }
      ],
      "name": "transferOwnership",
      "outputs": [],
      "stateMutability": "nonpayable",
      "type": "function"
    },
    {
      "inputs": [
        {
          "internalType": "address",
          "name": "",
          "type": "address"
        }
      ],
      "name": "whiteList",
      "outputs": [
        {
          "internalType": "bool",
          "name": "",
          "type": "bool"
        }
      ],
      "stateMutability": "view",
      "type": "function"
    }
  ],
  "bytecode": {
    "object": "0x60e06040523480156200001157600080fd5b5060405162001402380380620014028339810160408190526200003491620002a8565b83838382600090805190602001906200004f9291906200014b565b508151620000659060019060208501906200014b565b507fff0000000000000000000000000000000000000000000000000000000000000060f882901b166080524660a0526200009e620000af565b60c052506200044395505050505050565b60007f8b73c3c69bb8fe3d512ecc4cf759cc79239f7b179b0ffacaa9a75d522b39400f6000604051620000e391906200034c565b6040805191829003822060208301939093528101919091527fc89efdaa54c0f20c7adf612882df0950f5a951637e0307cdcb4c672f298b8bc660608201524660808201523060a082015260c00160405160208183030381529060405280519060200120905090565b8280546200015990620003f0565b90600052602060002090601f0160209004810192826200017d5760008555620001c8565b82601f106200019857805160ff1916838001178555620001c8565b82800160010185558215620001c8579182015b82811115620001c8578251825591602001919060010190620001ab565b50620001d6929150620001da565b5090565b5b80821115620001d65760008155600101620001db565b600082601f8301126200020357600080fd5b81516001600160401b03808211156200022057620002206200042d565b604051601f8301601f19908116603f011681019082821181831017156200024b576200024b6200042d565b816040528381526020925086838588010111156200026857600080fd5b600091505b838210156200028c57858201830151818301840152908201906200026d565b838211156200029e5760008385830101525b9695505050505050565b60008060008060808587031215620002bf57600080fd5b84516001600160401b0380821115620002d757600080fd5b620002e588838901620001f1565b95506020870151915080821115620002fc57600080fd5b506200030b87828801620001f1565b935050604085015160ff811681146200032357600080fd5b60608601519092506001600160a01b03811681146200034157600080fd5b939692955090935050565b600080835481600182811c9150808316806200036957607f831692505b60208084108214156200038a57634e487b7160e01b86526022600452602486fd5b818015620003a15760018114620003b357620003e2565b60ff19861689528489019650620003e2565b60008a81526020902060005b86811015620003da5781548b820152908501908301620003bf565b505084890196505b509498975050505050505050565b600181811c908216806200040557607f821691505b602082108114156200042757634e487b7160e01b600052602260045260246000fd5b50919050565b634e487b7160e01b600052604160045260246000fd5b60805160f81c60a05160c051610f8c62000476600039600061069d015260006106680152600061025d0152610f8c6000f3fe608060405234801561001057600080fd5b50600436106101a95760003560e01c806370a08231116100f9578063af17dea611610097578063dd62ed3e11610071578063dd62ed3e14610424578063e2b9e1861461044f578063f2fde38b14610457578063f785ef721461046a57600080fd5b8063af17dea6146103f6578063d505accf146103fe578063d83ba7ad1461041157600080fd5b8063837d73a6116100d3578063837d73a614610381578063893d20e8146103a157806395d89b41146103db578063a9059cbb146103e357600080fd5b806370a082311461032c57806379c650681461034c5780637ecebe001461036157600080fd5b8063313ce56711610166578063372c12b111610140578063372c12b11461029057806346946dfa146102b3578063492d8ed6146102d35780635c6581651461030157600080fd5b8063313ce56714610258578063324536eb1461027f5780633644e5151461028857600080fd5b806306fdde03146101ae578063095ea7b3146101cc57806318160ddd146101ef57806323b872dd1461020657806327e235e3146102195780632a996cb714610239575b600080fd5b6101b6610477565b6040516101c39190610e40565b60405180910390f35b6101df6101da366004610d7a565b610505565b60405190151581526020016101c3565b6101f860025481565b6040519081526020016101c3565b6101df610214366004610ccb565b610572565b6101f8610227366004610c76565b600f6020526000908152604090205481565b6018546102469060ff1681565b60405160ff90911681526020016101c3565b6102467f000000000000000000000000000000000000000000000000000000000000000081565b6101f860115481565b6101f8610664565b6101df61029e366004610c76565b60196020526000908152604090205460ff1681565b6101f86102c1366004610c76565b60136020526000908152604090205481565b6101df6102e1366004610d7a565b601660209081526000928352604080842090915290825290205460ff1681565b6101f861030f366004610c98565b601060209081526000928352604080842090915290825290205481565b6101f861033a366004610c76565b60036020526000908152604090205481565b61035f61035a366004610d7a565b6106bf565b005b6101f861036f366004610c76565b60056020526000908152604090205481565b6101f861038f366004610c76565b60176020526000908152604090205481565b7fa7b53796fd2d99cb1f5ae019b54f9e024446c3d12b483f733ccc62ed04eb126b546040516001600160a01b0390911681526020016101c3565b6101b6610705565b6101df6103f1366004610d7a565b610712565b6101b6610741565b61035f61040c366004610d07565b61074e565b61035f61041f366004610c76565b610992565b6101f8610432366004610c98565b600460209081526000928352604080842090915290825290205481565b6101b6610a0c565b61035f610465366004610c76565b610a19565b600c546102469060ff1681565b6000805461048490610f05565b80601f01602080910402602001604051908101604052809291908181526020018280546104b090610f05565b80156104fd5780601f106104d2576101008083540402835291602001916104fd565b820191906000526020600020905b8154815290600101906020018083116104e057829003601f168201915b505050505081565b3360008181526004602090815260408083206001600160a01b038716808552925280832085905551919290917f8c5be1e5ebec7d5bd14f71427d1e84f3dd0314c0f7b2291e5b200ac8c7c3b925906105609086815260200190565b60405180910390a35060015b92915050565b6001600160a01b038316600090815260046020908152604080832033845290915281205460001981146105ce576105a98382610eee565b6001600160a01b03861660009081526004602090815260408083203384529091529020555b6001600160a01b038516600090815260036020526040812080548592906105f6908490610eee565b90915550506001600160a01b03808516600081815260036020526040908190208054870190555190918716907fddf252ad1be2c89b69c2b068fc378daa952ba7f163c4a11628f55a4df523b3ef906106519087815260200190565b60405180910390a3506001949350505050565b60007f0000000000000000000000000000000000000000000000000000000000000000461461069a57610695610b2b565b905090565b507f000000000000000000000000000000000000000000000000000000000000000090565b3360009081526019602052604090205460ff166106f75760405162461bcd60e51b81526004016106ee90610e95565b60405180910390fd5b6107018282610bc5565b5050565b6001805461048490610f05565b3360009081526019602052604081205460ff1661056c5760405162461bcd60e51b81526004016106ee90610e95565b600b805461048490610f05565b4284101561079e5760405162461bcd60e51b815260206004820152601760248201527f5045524d49545f444541444c494e455f4558504952454400000000000000000060448201526064016106ee565b600060016107aa610664565b6001600160a01b038a811660008181526005602090815260409182902080546001810190915582517f6e71edae12b1b97f4d1f60370fef10105fa2faae0126114a169c64845d6126c98184015280840194909452938d166060840152608083018c905260a083019390935260c08083018b90528151808403909101815260e08301909152805192019190912061190160f01b6101008301526101028201929092526101228101919091526101420160408051601f198184030181528282528051602091820120600084529083018083525260ff871690820152606081018590526080810184905260a0016020604051602081039080840390855afa1580156108b6573d6000803e3d6000fd5b5050604051601f1901519150506001600160a01b038116158015906108ec5750876001600160a01b0316816001600160a01b0316145b6109295760405162461bcd60e51b815260206004820152600e60248201526d24a72b20a624a22fa9a4a3a722a960911b60448201526064016106ee565b6001600160a01b0390811660009081526004602090815260408083208a8516808552908352928190208990555188815291928a16917f8c5be1e5ebec7d5bd14f71427d1e84f3dd0314c0f7b2291e5b200ac8c7c3b925910160405180910390a350505050505050565b3361099b610c30565b6001600160a01b0316146109e85760405162461bcd60e51b815260206004820152601460248201527339b2b73232b91036bab9ba1031329037bbb732b960611b60448201526064016106ee565b6001600160a01b03166000908152601960205260409020805460ff19166001179055565b600a805461048490610f05565b7fa7b53796fd2d99cb1f5ae019b54f9e024446c3d12b483f733ccc62ed04eb126b546001600160a01b0316336001600160a01b031614610a9b5760405162461bcd60e51b815260206004820181905260248201527f4f776e61626c653a2063616c6c6572206973206e6f7420746865206f776e657260448201526064016106ee565b6001600160a01b038116610b005760405162461bcd60e51b815260206004820152602660248201527f4f776e61626c653a206e6577206f776e657220697320746865207a65726f206160448201526564647265737360d01b60648201526084016106ee565b610b28817fa7b53796fd2d99cb1f5ae019b54f9e024446c3d12b483f733ccc62ed04eb126b55565b50565b60007f8b73c3c69bb8fe3d512ecc4cf759cc79239f7b179b0ffacaa9a75d522b39400f6000604051610b5d9190610da4565b6040805191829003822060208301939093528101919091527fc89efdaa54c0f20c7adf612882df0950f5a951637e0307cdcb4c672f298b8bc660608201524660808201523060a082015260c00160405160208183030381529060405280519060200120905090565b8060026000828254610bd79190610ed6565b90915550506001600160a01b0382166000818152600360209081526040808320805486019055518481527fddf252ad1be2c89b69c2b068fc378daa952ba7f163c4a11628f55a4df523b3ef910160405180910390a35050565b60006106957f7050c9e0f4ca769c69bd3a8ef740bc37934f8e2c036e5a723fd8ee048ed3f8c35490565b80356001600160a01b0381168114610c7157600080fd5b919050565b600060208284031215610c8857600080fd5b610c9182610c5a565b9392505050565b60008060408385031215610cab57600080fd5b610cb483610c5a565b9150610cc260208401610c5a565b90509250929050565b600080600060608486031215610ce057600080fd5b610ce984610c5a565b9250610cf760208501610c5a565b9150604084013590509250925092565b600080600080600080600060e0888a031215610d2257600080fd5b610d2b88610c5a565b9650610d3960208901610c5a565b95506040880135945060608801359350608088013560ff81168114610d5d57600080fd5b9699959850939692959460a0840135945060c09093013592915050565b60008060408385031215610d8d57600080fd5b610d9683610c5a565b946020939093013593505050565b600080835481600182811c915080831680610dc057607f831692505b6020808410821415610de057634e487b7160e01b86526022600452602486fd5b818015610df45760018114610e0557610e32565b60ff19861689528489019650610e32565b60008a81526020902060005b86811015610e2a5781548b820152908501908301610e11565b505084890196505b509498975050505050505050565b600060208083528351808285015260005b81811015610e6d57858101830151858201604001528201610e51565b81811115610e7f576000604083870101525b50601f01601f1916929092016040019392505050565b60208082526021908201527f73656e64657220646f65736e277420657869737420696e2077686974656c69736040820152601d60fa1b606082015260800190565b60008219821115610ee957610ee9610f40565b500190565b600082821015610f0057610f00610f40565b500390565b600181811c90821680610f1957607f821691505b60208210811415610f3a57634e487b7160e01b600052602260045260246000fd5b50919050565b634e487b7160e01b600052601160045260246000fdfea264697066735822122093e1eafc6bdb5a283eb331750fc17ab200038f0f937b362e3430326d4203704e64736f6c63430008060033",
    "linkReferences": {}
  },
  "methodIdentifiers": {
    "DOMAIN_SEPARATOR()": "3644e515",
    "_authorizationStates(address,bytes32)": "492d8ed6",
    "_initializedVersion()": "2a996cb7",
    "_permitNonces(address)": "837d73a6",
    "allowance(address,address)": "dd62ed3e",
    "allowed(address,address)": "5c658165",
    "appendWhiteList(address)": "d83ba7ad",
    "approve(address,uint256)": "095ea7b3",
    "balanceOf(address)": "70a08231",
    "balances(address)": "27e235e3",
    "decimals()": "313ce567",
    "decimals_()": "f785ef72",
    "getOwner()": "893d20e8",
    "mintToken(address,uint256)": "79c65068",
    "minterAllowed(address)": "46946dfa",
    "name()": "06fdde03",
    "name_()": "e2b9e186",
    "nonces(address)": "7ecebe00",
    "permit(address,address,uint256,uint256,uint8,bytes32,bytes32)": "d505accf",
    "symbol()": "95d89b41",
    "symbol_()": "af17dea6",
    "totalSupply()": "18160ddd",
    "totalSupply_()": "324536eb",
    "transfer(address,uint256)": "a9059cbb",
    "transferFrom(address,address,uint256)": "23b872dd",
    "transferOwnership(address)": "f2fde38b",
    "whiteList(address)": "372c12b1"
  },
  "id": 22
}