{
  "abi": [
    {
      "inputs": [
        {
          "internalType": "string",
          "name": "name",
          "type": "string"
        },
        {
          "internalType": "string",
          "name": "symbol",
          "type": "string"
        },
        {
          "internalType": "uint8",
          "name": "decimals",
          "type": "uint8"
        }
      ],
      "stateMutability": "nonpayable",
      "type": "constructor"
    },
    {
      "anonymous": false,
      "inputs": [
        {
          "indexed": true,
          "internalType": "address",
          "name": "owner",
          "type": "address"
        },
        {
          "indexed": true,
          "internalType": "address",
          "name": "spender",
          "type": "address"
        },
        {
          "indexed": false,
          "internalType": "uint256",
          "name": "amount",
          "type": "uint256"
        }
      ],
      "name": "Approval",
      "type": "event"
    },
    {
      "anonymous": false,
      "inputs": [
        {
          "indexed": true,
          "internalType": "address",
          "name": "from",
          "type": "address"
        },
        {
          "indexed": true,
          "internalType": "address",
          "name": "to",
          "type": "address"
        },
        {
          "indexed": false,
          "internalType": "uint256",
          "name": "amount",
          "type": "uint256"
        }
      ],
      "name": "Transfer",
      "type": "event"
    },
    {
      "inputs": [],
      "name": "DOMAIN_SEPARATOR",
      "outputs": [
        {
          "internalType": "bytes32",
          "name": "",
          "type": "bytes32"
        }
      ],
      "stateMutability": "view",
      "type": "function"
    },
    {
      "inputs": [
        {
          "internalType": "address",
          "name": "",
          "type": "address"
        },
        {
          "internalType": "address",
          "name": "",
          "type": "address"
        }
      ],
      "name": "allowance",
      "outputs": [
        {
          "internalType": "uint256",
          "name": "",
          "type": "uint256"
        }
      ],
      "stateMutability": "view",
      "type": "function"
    },
    {
      "inputs": [
        {
          "internalType": "address",
          "name": "addr",
          "type": "address"
        }
      ],
      "name": "appendWhiteList",
      "outputs": [],
      "stateMutability": "nonpayable",
      "type": "function"
    },
    {
      "inputs": [
        {
          "internalType": "address",
          "name": "spender",
          "type": "address"
        },
        {
          "internalType": "uint256",
          "name": "amount",
          "type": "uint256"
        }
      ],
      "name": "approve",
      "outputs": [
        {
          "internalType": "bool",
          "name": "",
          "type": "bool"
        }
      ],
      "stateMutability": "nonpayable",
      "type": "function"
    },
    {
      "inputs": [
        {
          "internalType": "address",
          "name": "",
          "type": "address"
        }
      ],
      "name": "balanceOf",
      "outputs": [
        {
          "internalType": "uint256",
          "name": "",
          "type": "uint256"
        }
      ],
      "stateMutability": "view",
      "type": "function"
    },
    {
      "inputs": [],
      "name": "decimals",
      "outputs": [
        {
          "internalType": "uint8",
          "name": "",
          "type": "uint8"
        }
      ],
      "stateMutability": "view",
      "type": "function"
    },
    {
      "inputs": [
        {
          "internalType": "address",
          "name": "recipient",
          "type": "address"
        },
        {
          "internalType": "uint256",
          "name": "amount",
          "type": "uint256"
        }
      ],
      "name": "mintToken",
      "outputs": [],
      "stateMutability": "nonpayable",
      "type": "function"
    },
    {
      "inputs": [],
      "name": "name",
      "outputs": [
        {
          "internalType": "string",
          "name": "",
          "type": "string"
        }
      ],
      "stateMutability": "view",
      "type": "function"
    },
    {
      "inputs": [
        {
          "internalType": "address",
          "name": "",
          "type": "address"
        }
      ],
      "name": "nonces",
      "outputs": [
        {
          "internalType": "uint256",
          "name": "",
          "type": "uint256"
        }
      ],
      "stateMutability": "view",
      "type": "function"
    },
    {
      "inputs": [
        {
          "internalType": "address",
          "name": "owner",
          "type": "address"
        },
        {
          "internalType": "address",
          "name": "spender",
          "type": "address"
        },
        {
          "internalType": "uint256",
          "name": "value",
          "type": "uint256"
        },
        {
          "internalType": "uint256",
          "name": "deadline",
          "type": "uint256"
        },
        {
          "internalType": "uint8",
          "name": "v",
          "type": "uint8"
        },
        {
          "internalType": "bytes32",
          "name": "r",
          "type": "bytes32"
        },
        {
          "internalType": "bytes32",
          "name": "s",
          "type": "bytes32"
        }
      ],
      "name": "permit",
      "outputs": [],
      "stateMutability": "nonpayable",
      "type": "function"
    },
    {
      "inputs": [],
      "name": "symbol",
      "outputs": [
        {
          "internalType": "string",
          "name": "",
          "type": "string"
        }
      ],
      "stateMutability": "view",
      "type": "function"
    },
    {
      "inputs": [],
      "name": "totalSupply",
      "outputs": [
        {
          "internalType": "uint256",
          "name": "",
          "type": "uint256"
        }
      ],
      "stateMutability": "view",
      "type": "function"
    },
    {
      "inputs": [
        {
          "internalType": "address",
          "name": "recipient",
          "type": "address"
        },
        {
          "internalType": "uint256",
          "name": "amount",
          "type": "uint256"
        }
      ],
      "name": "transfer",
      "outputs": [
        {
          "internalType": "bool",
          "name": "",
          "type": "bool"
        }
      ],
      "stateMutability": "nonpayable",
      "type": "function"
    },
    {
      "inputs": [
        {
          "internalType": "address",
          "name": "from",
          "type": "address"
        },
        {
          "internalType": "address",
          "name": "to",
          "type": "address"
        },
        {
          "internalType": "uint256",
          "name": "amount",
          "type": "uint256"
        }
      ],
      "name": "transferFrom",
      "outputs": [
        {
          "internalType": "bool",
          "name": "",
          "type": "bool"
        }
      ],
      "stateMutability": "nonpayable",
      "type": "function"
    },
    {
      "inputs": [
        {
          "internalType": "address",
          "name": "",
          "type": "address"
        }
      ],
      "name": "whiteList",
      "outputs": [
        {
          "internalType": "bool",
          "name": "",
          "type": "bool"
        }
      ],
      "stateMutability": "view",
      "type": "function"
    }
  ],
  "bytecode": {
    "object": "0x60e06040523480156200001157600080fd5b5060405162001078380380620010788339810160408190526200003491620002a7565b82828282600090805190602001906200004f9291906200014a565b508151620000659060019060208501906200014a565b507fff0000000000000000000000000000000000000000000000000000000000000060f882901b166080524660a0526200009e620000ae565b60c0525062000423945050505050565b60007f8b73c3c69bb8fe3d512ecc4cf759cc79239f7b179b0ffacaa9a75d522b39400f6000604051620000e291906200032c565b6040805191829003822060208301939093528101919091527fc89efdaa54c0f20c7adf612882df0950f5a951637e0307cdcb4c672f298b8bc660608201524660808201523060a082015260c00160405160208183030381529060405280519060200120905090565b8280546200015890620003d0565b90600052602060002090601f0160209004810192826200017c5760008555620001c7565b82601f106200019757805160ff1916838001178555620001c7565b82800160010185558215620001c7579182015b82811115620001c7578251825591602001919060010190620001aa565b50620001d5929150620001d9565b5090565b5b80821115620001d55760008155600101620001da565b600082601f8301126200020257600080fd5b81516001600160401b03808211156200021f576200021f6200040d565b604051601f8301601f19908116603f011681019082821181831017156200024a576200024a6200040d565b816040528381526020925086838588010111156200026757600080fd5b600091505b838210156200028b57858201830151818301840152908201906200026c565b838211156200029d5760008385830101525b9695505050505050565b600080600060608486031215620002bd57600080fd5b83516001600160401b0380821115620002d557600080fd5b620002e387838801620001f0565b94506020860151915080821115620002fa57600080fd5b506200030986828701620001f0565b925050604084015160ff811681146200032157600080fd5b809150509250925092565b600080835481600182811c9150808316806200034957607f831692505b60208084108214156200036a57634e487b7160e01b86526022600452602486fd5b8180156200038157600181146200039357620003c2565b60ff19861689528489019650620003c2565b60008a81526020902060005b86811015620003ba5781548b8201529085019083016200039f565b505084890196505b509498975050505050505050565b600181811c90821680620003e557607f821691505b602082108114156200040757634e487b7160e01b600052602260045260246000fd5b50919050565b634e487b7160e01b600052604160045260246000fd5b60805160f81c60a05160c051610c226200045660003960006104b00152600061047b0152600061016a0152610c226000f3fe608060405234801561001057600080fd5b50600436106100f55760003560e01c806370a0823111610097578063a9059cbb11610066578063a9059cbb14610226578063d505accf14610239578063d83ba7ad1461024c578063dd62ed3e1461025f57600080fd5b806370a08231146101c957806379c65068146101e95780637ecebe00146101fe57806395d89b411461021e57600080fd5b806323b872dd116100d357806323b872dd14610152578063313ce567146101655780633644e5151461019e578063372c12b1146101a657600080fd5b806306fdde03146100fa578063095ea7b31461011857806318160ddd1461013b575b600080fd5b61010261028a565b60405161010f9190610ad6565b60405180910390f35b61012b610126366004610a10565b610318565b604051901515815260200161010f565b61014460025481565b60405190815260200161010f565b61012b610160366004610961565b610385565b61018c7f000000000000000000000000000000000000000000000000000000000000000081565b60405160ff909116815260200161010f565b610144610477565b61012b6101b436600461090c565b60066020526000908152604090205460ff1681565b6101446101d736600461090c565b60036020526000908152604090205481565b6101fc6101f7366004610a10565b6104d2565b005b61014461020c36600461090c565b60056020526000908152604090205481565b610102610518565b61012b610234366004610a10565b610525565b6101fc61024736600461099d565b610554565b6101fc61025a36600461090c565b610798565b61014461026d36600461092e565b600460209081526000928352604080842090915290825290205481565b6000805461029790610b9b565b80601f01602080910402602001604051908101604052809291908181526020018280546102c390610b9b565b80156103105780601f106102e557610100808354040283529160200191610310565b820191906000526020600020905b8154815290600101906020018083116102f357829003601f168201915b505050505081565b3360008181526004602090815260408083206001600160a01b038716808552925280832085905551919290917f8c5be1e5ebec7d5bd14f71427d1e84f3dd0314c0f7b2291e5b200ac8c7c3b925906103739086815260200190565b60405180910390a35060015b92915050565b6001600160a01b038316600090815260046020908152604080832033845290915281205460001981146103e1576103bc8382610b84565b6001600160a01b03861660009081526004602090815260408083203384529091529020555b6001600160a01b03851660009081526003602052604081208054859290610409908490610b84565b90915550506001600160a01b03808516600081815260036020526040908190208054870190555190918716907fddf252ad1be2c89b69c2b068fc378daa952ba7f163c4a11628f55a4df523b3ef906104649087815260200190565b60405180910390a3506001949350505050565b60007f000000000000000000000000000000000000000000000000000000000000000046146104ad576104a86107eb565b905090565b507f000000000000000000000000000000000000000000000000000000000000000090565b3360009081526006602052604090205460ff1661050a5760405162461bcd60e51b815260040161050190610b2b565b60405180910390fd5b6105148282610885565b5050565b6001805461029790610b9b565b3360009081526006602052604081205460ff1661037f5760405162461bcd60e51b815260040161050190610b2b565b428410156105a45760405162461bcd60e51b815260206004820152601760248201527f5045524d49545f444541444c494e455f455850495245440000000000000000006044820152606401610501565b600060016105b0610477565b6001600160a01b038a811660008181526005602090815260409182902080546001810190915582517f6e71edae12b1b97f4d1f60370fef10105fa2faae0126114a169c64845d6126c98184015280840194909452938d166060840152608083018c905260a083019390935260c08083018b90528151808403909101815260e08301909152805192019190912061190160f01b6101008301526101028201929092526101228101919091526101420160408051601f198184030181528282528051602091820120600084529083018083525260ff871690820152606081018590526080810184905260a0016020604051602081039080840390855afa1580156106bc573d6000803e3d6000fd5b5050604051601f1901519150506001600160a01b038116158015906106f25750876001600160a01b0316816001600160a01b0316145b61072f5760405162461bcd60e51b815260206004820152600e60248201526d24a72b20a624a22fa9a4a3a722a960911b6044820152606401610501565b6001600160a01b0390811660009081526004602090815260408083208a8516808552908352928190208990555188815291928a16917f8c5be1e5ebec7d5bd14f71427d1e84f3dd0314c0f7b2291e5b200ac8c7c3b925910160405180910390a350505050505050565b3360009081526006602052604090205460ff166107c75760405162461bcd60e51b815260040161050190610b2b565b6001600160a01b03166000908152600660205260409020805460ff19166001179055565b60007f8b73c3c69bb8fe3d512ecc4cf759cc79239f7b179b0ffacaa9a75d522b39400f600060405161081d9190610a3a565b6040805191829003822060208301939093528101919091527fc89efdaa54c0f20c7adf612882df0950f5a951637e0307cdcb4c672f298b8bc660608201524660808201523060a082015260c00160405160208183030381529060405280519060200120905090565b80600260008282546108979190610b6c565b90915550506001600160a01b0382166000818152600360209081526040808320805486019055518481527fddf252ad1be2c89b69c2b068fc378daa952ba7f163c4a11628f55a4df523b3ef910160405180910390a35050565b80356001600160a01b038116811461090757600080fd5b919050565b60006020828403121561091e57600080fd5b610927826108f0565b9392505050565b6000806040838503121561094157600080fd5b61094a836108f0565b9150610958602084016108f0565b90509250929050565b60008060006060848603121561097657600080fd5b61097f846108f0565b925061098d602085016108f0565b9150604084013590509250925092565b600080600080600080600060e0888a0312156109b857600080fd5b6109c1886108f0565b96506109cf602089016108f0565b95506040880135945060608801359350608088013560ff811681146109f357600080fd5b9699959850939692959460a0840135945060c09093013592915050565b60008060408385031215610a2357600080fd5b610a2c836108f0565b946020939093013593505050565b600080835481600182811c915080831680610a5657607f831692505b6020808410821415610a7657634e487b7160e01b86526022600452602486fd5b818015610a8a5760018114610a9b57610ac8565b60ff19861689528489019650610ac8565b60008a81526020902060005b86811015610ac05781548b820152908501908301610aa7565b505084890196505b509498975050505050505050565b600060208083528351808285015260005b81811015610b0357858101830151858201604001528201610ae7565b81811115610b15576000604083870101525b50601f01601f1916929092016040019392505050565b60208082526021908201527f73656e64657220646f65736e277420657869737420696e2077686974656c69736040820152601d60fa1b606082015260800190565b60008219821115610b7f57610b7f610bd6565b500190565b600082821015610b9657610b96610bd6565b500390565b600181811c90821680610baf57607f821691505b60208210811415610bd057634e487b7160e01b600052602260045260246000fd5b50919050565b634e487b7160e01b600052601160045260246000fdfea2646970667358221220582a0fcc787fdd88494357a48006594679d3308977462d46c6f4b5c6fd9b002364736f6c63430008060033",
    "linkReferences": {}
  },
  "methodIdentifiers": {
    "DOMAIN_SEPARATOR()": "3644e515",
    "allowance(address,address)": "dd62ed3e",
    "appendWhiteList(address)": "d83ba7ad",
    "approve(address,uint256)": "095ea7b3",
    "balanceOf(address)": "70a08231",
    "decimals()": "313ce567",
    "mintToken(address,uint256)": "79c65068",
    "name()": "06fdde03",
    "nonces(address)": "7ecebe00",
    "permit(address,address,uint256,uint256,uint8,bytes32,bytes32)": "d505accf",
    "symbol()": "95d89b41",
    "totalSupply()": "18160ddd",
    "transfer(address,uint256)": "a9059cbb",
    "transferFrom(address,address,uint256)": "23b872dd",
    "whiteList(address)": "372c12b1"
  },
  "storageLayout": {
    "storage": [
      {
        "astId": 28994,
        "contract": "src/USDC.sol:USDC",
        "label": "name",
        "offset": 0,
        "slot": "0",
        "type": "t_string_storage"
      },
      {
        "astId": 28996,
        "contract": "src/USDC.sol:USDC",
        "label": "symbol",
        "offset": 0,
        "slot": "1",
        "type": "t_string_storage"
      },
      {
        "astId": 29000,
        "contract": "src/USDC.sol:USDC",
        "label": "totalSupply",
        "offset": 0,
        "slot": "2",
        "type": "t_uint256"
      },
      {
        "astId": 29004,
        "contract": "src/USDC.sol:USDC",
        "label": "balanceOf",
        "offset": 0,
        "slot": "3",
        "type": "t_mapping(t_address,t_uint256)"
      },
      {
        "astId": 29010,
        "contract": "src/USDC.sol:USDC",
        "label": "allowance",
        "offset": 0,
        "slot": "4",
        "type": "t_mapping(t_address,t_mapping(t_address,t_uint256))"
      },
      {
        "astId": 29018,
        "contract": "src/USDC.sol:USDC",
        "label": "nonces",
        "offset": 0,
        "slot": "5",
        "type": "t_mapping(t_address,t_uint256)"
      },
      {
        "astId": 29703,
        "contract": "src/USDC.sol:USDC",
        "label": "whiteList",
        "offset": 0,
        "slot": "6",
        "type": "t_mapping(t_address,t_bool)"
      }
    ],
    "types": {
      "t_address": {
        "encoding": "inplace",
        "label": "address",
        "numberOfBytes": "20"
      },
      "t_bool": {
        "encoding": "inplace",
        "label": "bool",
        "numberOfBytes": "1"
      },
      "t_mapping(t_address,t_bool)": {
        "encoding": "mapping",
        "key": "t_address",
        "label": "mapping(address => bool)",
        "numberOfBytes": "32",
        "value": "t_bool"
      },
      "t_mapping(t_address,t_mapping(t_address,t_uint256))": {
        "encoding": "mapping",
        "key": "t_address",
        "label": "mapping(address => mapping(address => uint256))",
        "numberOfBytes": "32",
        "value": "t_mapping(t_address,t_uint256)"
      },
      "t_mapping(t_address,t_uint256)": {
        "encoding": "mapping",
        "key": "t_address",
        "label": "mapping(address => uint256)",
        "numberOfBytes": "32",
        "value": "t_uint256"
      },
      "t_string_storage": {
        "encoding": "bytes",
        "label": "string",
        "numberOfBytes": "32"
      },
      "t_uint256": {
        "encoding": "inplace",
        "label": "uint256",
        "numberOfBytes": "32"
      }
    }
  },
  "id": 22
}